:020000040800F2
:1000000000800120E51B0008210B0008230B0008DD
:10001000250B0008270B0008290B00080000000032
:100020000000000000000000000000002B0B000892
:100030002D0B0008000000002F0B0008310B0008FA
:10004000351C0008351C0008351C0008351C00084C
:10005000351C0008351C0008351C0008351C00083C
:10006000351C0008351C0008351C0008351C00082C
:10007000351C0008351C0008351C0008351C00081C
:10008000351C0008351C0008351C00080000000065
:10009000000000000000000000000000351C000807
:1000A000351C0008390B0008351C0008351C0008F9
:1000B000351C0008351C0008351C0008351C0008DC
:1000C000351C0008351C0008351C0008351C0008CC
:1000D000351C0008351C0008351C00080000000015
:1000E000351C0008351C0008351C00080000000005
:1000F000000000000000000000000000351C0008A7
:1001000000000000351C0008351C0008351C0008E4
:1001100000000000000000000000000000000000DF
:10012000351C0008351C0008351C0008351C00086B
:10013000351C000800000000000000000000000066
:10014000000000000000000000000000351C000856
:10015000351C0008351C0008351C0008351C00083B
:10016000351C0008351C00080000000000000000DD
:10017000000000000000000000000000000000007F
:1001800000000000351C0008000000000000000016
:04019000351C000812
:1001940010B5054C237833B9044B13B10448AFF3BD
:1001A40000800123237010BD0C000020000000001B
:1001B400901C000808B5034B1BB103490348AFF377
:1001C400008008BD0000000010000020901C000802
:1001D40053B94AB9002908BF00281CBF4FF0FF31AA
:1001E4004FF0FF3000F072B9ADF1080C6DE904CEA8
:1001F40000F006F8DDF804E0DDE9022304B07047FE
:100204002DE9F047089E04468846002B4BD18A42CC
:10021400154667D9B2FA82F24AB1C2F1200701FA4F
:1002240002F320FA07F7954047EA030894404FEA9F
:10023400154E230CB8FBFEF71FFA85FC0EFB17883E
:1002440043EA084307FB0CF1994209D9EB1807F17B
:10025400FF3080F01B81994240F21881023F2B4409
:100264005B1AA4B2B3FBFEF00EFB103344EA034462
:1002740000FB0CFCA44509D92C1900F1FF3380F0D4
:100284000781A44540F2048102382C4440EA074027
:10029400A4EB0C0400271EB1D4400023C6E900439C
:1002A4003946BDE8F0878B4209D9002E00F0EB8077
:1002B4000027C6E9000138463946BDE8F087B3FA9D
:1002C40083F7002F47D18B4202D3824200F2FA8097
:1002D400841A61EB030301209846002EE0D0C6E99E
:1002E4000048DDE702B9FFDEB2FA82F2002A40F0EC
:1002F4008F80491B4FEA154E1FFA85F80127B1FB81
:10030400FEFC230C0EFB1C1143EA014308FB0CF119
:10031400994207D9EB180CF1FF3002D2994200F24E
:10032400CD808446591AA3B2B1FBFEF00EFB101423
:1003340043EA044408FB00F8A04507D92C1900F14E
:10034400FF3302D2A04500F2B6801846A4EB08049D
:1003540040EA0C409FE7C7F1200CBB4022FA0CFE98
:100364004EEA030E01FA07F420FA0CF521FA0CF315
:100374004FEA1E482543B3FBF8F92C0C08FB19334C
:100384001FFA8EFA44EA034309FB0AF49C4202FA78
:1003940007F200FA07F10BD91EEB030309F1FF3052
:1003A40080F087809C4240F28480A9F10209734462
:1003B4001B1BADB2B3FBF8F008FB103345EA034452
:1003C40000FB0AFAA24508D91EEB040400F1FF332E
:1003D4006BD2A24569D90238744440EA0940A0FBB3
:1003E4000289A4EB0A044C45C2464B4654D351D06F
:1003F400002E69D0B1EB0A0564EB030404FA0CFC8B
:10040400FD40FC404CEA0505C6E90054002747E7D7
:10041400C2F1200320FA03F7954001FA02F021FA11
:1004240003F34FEA154E3843010CB3FBFEF71FFAF2
:1004340085F80EFB173341EA034107FB08F38B42AF
:1004440004FA02F407D9691807F1FF3C2FD28B4252
:100454002DD9023F2944CB1A81B2B3FBFEF00EFB27
:10046400103341EA034100FB08F38B4207D96918B2
:1004740000F1FF3C17D28B4215D902382944C91A1E
:1004840040EA07473BE73746304609E70746E7E6D1
:100494001846FBE64145ABD2B8EB020A69EB0E0203
:1004A40001381346A4E76046E9E7184695E767462E
:1004B400D1E781467CE702382C4447E7ACF1020CD3
:1004C4002B442FE7384608E73746E9E6704700BF74
:1004D40008B5074B1B7803B908BD00224FF400711F
:1004E400044800F0E2FC024B00221A70F4E700BF5B
:1004F4002F00002000080240830803F008030821AD
:100504004A1ED2B239B10549C95C814204D00133D3
:10051400DBB21146F4E7FF2318467047A81C000815
:1005240038B54FF48071504800F0B8FC002814BF6F
:100534000122002204D04D490B780133DBB20B7049
:100544004B4B1B78DBB2934266D04A4B1B78DBB231
:100554004F2B5BD847490B780B33DBB20B70444B02
:100564001A70444B1B78DBB29F2B73D9424A138811
:100574005B0813803D4B1B78DBB2042B03D9138833
:1005840043F4006313803B4A13786033DBB2137087
:10059400364B00221A70394B1B78002B53D0384A43
:1005A40013780133DBB213700B2B53D9324C2088F0
:1005B40000F03F00FFF7A0FF05012088C0F387107B
:1005C400FFF79AFF40B22843C0B22E4B1B7853B9B1
:1005D4002D4B18701B78DBB2032B23D92A4B1B78C5
:1005E400DBB2432B1ED8274A1378DBB2591CC9B29D
:1005F40011702649C8541278D2B2234B1B78DBB24F
:100604009A4217D21E4B00221A7023E019490B7824
:100614001D33DBB20B70A2E7164A13781433DBB236
:1006240013709EE7154B00221A70194A1388013380
:1006340013800FE0114B00221A70164B01221A701E
:10064400FFF746FFDEE70C4B1B889BB240F63832BF
:10065400934200D038BD094B01221A700023084A86
:100664001370084A1370F5E70008024016010020D1
:1006740084000020330000202800002035000020E2
:100684002E0000203C00002032000020400000200A
:1006940038000020340000201F4A1378591C1170C0
:1006A400002B2FD110B51D4B1B781D4A1278934295
:1006B4000DD3FFF70DFF1B4A138801331380164B2C
:1006C4001B78072B02D9144B00221A7010BD164A4E
:1006D400D15C164C2278531C237001239340194299
:1006E40014BF012200224FF40071114800F0DDFB19
:1006F4002378052BE3D900222270084A13780133AA
:100704001370DCE7044B1B78072B03D9024B002240
:100714001A707047704700BF830000202A00002031
:100724003A00002030000020880000203B00002018
:100734000008024008B5084B1B78DBB2022B05D039
:10074400054B1B78DBB2012B03D008BDFFF7E8FE95
:10075400FBE7FFF7A1FFF8E72F00002082B06B460C
:10076400074A92E8030083E80300064A03CB1060BB
:100774005160054B00221A70012002B0704700BF7F
:10078400B81C0008880000202F00002070B58AB033
:1007940000240594069407940894099401942F4B1B
:1007A4001A6B42F004021A631A6B02F004020192FB
:1007B400019A02941A6B42F080021A631A6B02F0D7
:1007C40080020292029A03941A6B42F001021A63A5
:1007D4001A6B02F001020392039A04941A6B42F01A
:1007E40002021A631B6B03F002030493049B1C4E66
:1007F40022462021304600F058FB1A4D22464FF481
:100804000071284600F051FB4FF400530593164B3A
:100814000693079405A9284600F06EFA2023059351
:10082400012306930794089405A9304600F064FA5E
:100834004FF4807305930694079405A9284600F0A5
:100844005BFA4FF4007305931123069307940894FD
:1008540005A9284600F050FA0AB070BD00380240DD
:1008640000000240000802400000211072B6FEE7BA
:1008740008B50448044B036000F02EFA00B908BD23
:10088400FFF7F4FF180100200030024000B587B0E4
:100894000023029303930493059300930193144854
:1008A400144A02604360836040F2E732C26003612D
:1008B4004361836100F088FF98B906A94FF480531F
:1008C40041F8103D0A4800F0A4FF60B900230093EA
:1008D40001936946064801F009F830B907B05DF89C
:1008E40004FBFFF7C3FFFFF7C1FFFFF7BFFF00BF24
:1008F400200100200000014008B50A480A4B0360AB
:100904004FF4E133436000238360C36003610C222E
:1009140042618361C36101F033F900B908BDFFF797
:10092400A5FF00BF600100200044004000B595B061
:100934003022002108A801F0A1F9002303930493B5
:100944000593069307930193204A116C41F080515B
:100954001164126C02F080520192019A02931C49B4
:100964000A6822F4404242F400420A600A6802F42F
:1009740040420292029A0222089201210B91102114
:100984000C910E920F93082310934023119312920B
:100994000723139308A800F08FFA90B90F23039349
:1009A40002210491002305934FF4805306934FF4DE
:1009B400C053079303A800F0E1FC20B915B05DF81B
:1009C40004FBFFF753FFFFF751FF00BF003802405D
:1009D4000070004008B500F0E9F8FFF7A7FFFFF743
:1009E400D5FEFFF745FFFFF751FFFFF785FF0348EB
:1009F40000F0C9FDFFF7B2FEFEE700BF20010020B2
:100A040000B583B0002100910C4B5A6C42F4804233
:100A14005A645A6C02F480420092009A01911A6C52
:100A240042F080521A641B6C03F080530193019BC3
:100A3400072000F0E7F803B05DF804FB003802403B
:100A44000268094B9A4200D0704782B00023019398
:100A5400064B1A6B42F480521A631B6B03F48053E7
:100A64000193019B02B070470030024000380240FD
:100A740002680E4B9A4200D0704700B583B0002143
:100A8400019103F59C335A6C42F001025A645B6C89
:100A940003F001030193019B0A46192000F0C4F8F6
:100AA400192000F0F5F803B05DF804FB00000140E4
:100AB40000B589B000230393049305930693079329
:100AC4000268144B9A4202D009B05DF804FB00217D
:100AD400019103F5FA331A6C42F400321A641A6C69
:100AE40002F400320192019A02911A6B42F001025F
:100AF4001A631B6B03F001030293029B0C23039301
:100B0400022304930723079303A9034800F0F4F88E
:100B1400DAE700BF0044004000000240FEE7FEE7C1
:100B2400FEE7FEE7FEE770477047704708B500F040
:100B340057F808BD08B5FFF7FDFD024800F039FD80
:100B440008BD00BF20010020054BD3F8882042F4E3
:100B54007002C3F888204FF000629A60704700BFAB
:100B640000ED00E010B504460E4B18784FF47A738C
:100B7400B3FBF0F30C4A1068B0FBF3F000F096F806
:100B840068B90F2C01D901200AE0002221464FF058
:100B9400FF3000F049F8034B5C60002000E00120C6
:100BA40010BD00BF040000200000002008B50B4B5E
:100BB4001A6842F400721A601A6842F480621A6079
:100BC4001A6842F480721A60032000F01BF80020B7
:100BD400FFF7C8FFFFF714FF002008BD003C0240E8
:100BE400034A1168034B1B780B441360704700BF22
:100BF400A001002004000020014B1868704700BFCA
:100C0400A0010020074AD36823F4E0631B041B0CF3
:100C1400000200F4E060184340F0BF6040F400308C
:100C2400D060704700ED00E030B4174BDB68C3F3CD
:100C34000223C3F10704042C28BF04241D1D062D20
:100C440018D9033B4FF0FF3505FA04F421EA0401F7
:100C5400994005FA03F322EA0303194300280BDB46
:100C64000901C9B200F1604000F5614080F8001349
:100C740030BC70470023E5E700F00F000901C9B25A
:100C8400024B1954F4E700BF00ED00E014ED00E05E
:100C9400002807DB00F01F02400901239340024AA9
:100CA40042F82030704700BF00E100E00138B0F1A5
:100CB400807F0AD2064B5860064AF02182F823103E
:100CC4000020986007221A6070470120704700BF17
:100CD40010E000E000ED00E058B110B5044643799F
:100CE4001BB101236371002010BD0371FFF7A8FE3F
:100CF400F7E701207047000000230F2B00F2C580A6
:100D0400F0B583B039E0042200E00022AA403A435F
:100D140002345E4D45F824205D4A1468F24302EA29
:100D240004054F6817F4803F01D046EA0405584C87
:100D34002560646802EA04054F6817F4003F01D097
:100D440046EA0405524C6560A46802EA04054F684B
:100D540017F4801F01D046EA04054D4CA560E468F1
:100D640022404D6815F4001F01D046EA0402484CA5
:100D7400E26001330F2B00F2868001229A400C6856
:100D840004EA0206B242F4D14C68651E012D03D96F
:100D9400112C01D0122C12D185685F000324BC40B1
:100DA40025EA0405CC68BC402C438460456825EAE8
:100DB40002054C68C4F300129A402A434260C46896
:100DC4005F000322BA40D24314408D68BD402543DE
:100DD400C5604C68022C01D0122C13D1DD080835F3
:100DE40050F825E003F007044FEA840C0F2404FABA
:100DF4000CF42EEA040E0C6904FA0CF444EA0E0412
:100E040040F82540046822404C6804F00304BC40C8
:100E1400224302604A6812F0805FAAD00022019245
:100E24001C4A546C44F480445464526C02F480426E
:100E34000192019A9C08A51C144A52F8257003F0EB
:100E4400030295000F22AA4027EA0207124A9042A1
:100E54003FF45BAF02F5806290420ED002F58062EF
:100E640090420CD002F5806290420AD002F5806272
:100E740090423FF448AF072248E7012246E70222A6
:100E840044E7032242E703B0F0BD70470038014055
:100E9400003C01400038024000000240036919424E
:100EA40001D1002070470120704712B90904816103
:100EB4007047816170470000002800F0E48170B53C
:100EC40082B00446036813F0010F3BD0A74B9B6824
:100ED40003F00C03042B2CD0A44B9B6803F00C03ED
:100EE400082B21D06368B3F5803F4FD0B3F5A02F12
:100EF40052D09E4B1A6822F480321A601A6822F487
:100F040080221A606368002B50D0FFF775FE0546F7
:100F1400964B1B6813F4003F14D1FFF76DFE401B82
:100F24006428F5D90320B3E1904B5B6813F4800F78
:100F3400D8D08E4B1B6813F4003F03D06368002B9A
:100F440000F0A381236813F0020F55D0874B9B68F0
:100F540013F00C0F3ED0854B9B6803F00C03082B59
:100F640033D0E368002B68D0814B01221A60FFF76D
:100F740043FE05467D4B1B6813F0020F54D1FFF767
:100F84003BFE401B0228F5D9032081E1774A136810
:100F940043F480331360B5E7744B1A6842F480223B
:100FA4001A601A6842F480321A60ABE7FFF724FE35
:100FB40005466E4B1B6813F4003FC3D0FFF71CFEBD
:100FC400401B6428F5D9032062E1684B5B6813F485
:100FD400800FC6D1654B1B6813F0020F04D0E36881
:100FE400012B01D0012053E1604A136823F0F80378
:100FF400216943EAC1031360236813F0080F40D04A
:10100400636963B35B4B01221A60FFF7F5FD054684
:10101400564B5B6F13F0020F33D1FFF7EDFD401B0E
:101024000228F5D9032033E1504A136823F0F8036A
:10103400216943EAC1031360DEE74D4B00221A60C5
:10104400FFF7DAFD0546494B1B6813F0020FD3D0B6
:10105400FFF7D2FD401B0228F5D9032018E1454BC8
:1010640000221A60FFF7C8FD0546404B5B6F13F082
:10107400020F06D0FFF7C0FD401B0228F5D903205C
:1010840006E1236813F0040F79D0384B1B6C13F07E
:10109400805F33D100230193344B1A6C42F08052A9
:1010A4001A641B6C03F080530193019B0125324B9E
:1010B4001B6813F4807F23D0A368012B34D0052B45
:1010C40038D02A4B1A6F22F001021A671A6F22F0E5
:1010D40004021A67A368002B36D0FFF78DFD06467D
:1010E400224B1B6F13F0020F48D1FFF785FD801BC5
:1010F40041F288339842F3D90320C9E00025D6E7AA
:101104001D4A136843F480731360FFF775FD0646A8
:10111400194B1B6813F4807FCED1FFF76DFD801B44
:101124000228F5D90320B3E0104A136F43F00103FA
:101134001367CFE70D4B1A6F42F004021A671A6F58
:1011440042F001021A67C5E7FFF756FD0646074B52
:101154001B6F13F0020F11D0FFF74EFD801B41F2FD
:1011640088339842F3D9032092E000BF003802404C
:1011740000004742800E474200700040EDB9A36969
:10118400002B00F08480454A926802F00C02082A81
:1011940051D0022B17D0424B00221A60FFF72CFDCE
:1011A40004463E4B1B6813F0007F42D0FFF724FD3A
:1011B400001B0228F5D903206AE0384A136C23F097
:1011C40080531364DBE7364B00221A60FFF714FDEB
:1011D4000546324B1B6813F0007F06D0FFF70CFD69
:1011E400401B0228F5D9032052E0E369226A134325
:1011F400626A43EA8213A26A5208013A43EA02434A
:10120400E26A43EA0263254A5360254B01221A60CD
:10121400FFF7F2FC0446214B1B6813F0007F06D154
:10122400FFF7EAFC001B0228F5D9032030E0002078
:101234002EE000202CE0012B2CD0184B5B6803F42B
:101244008001E269914201D0012021E003F03F02D4
:10125400216A8A4201D001201AE0616A47F6C0720D
:101264001A408A4201D0012012E003F44032A16AFC
:101274008A4201D001200BE003F07063E26A9342DA
:101284000AD0012004E001207047012000E0002082
:1012940002B070BD0120FBE70020F9E700380240EE
:1012A40060004742324B9B6803F00C03042B5CD074
:1012B400082B01D02F4870472DE9F04B2C4B5A686E
:1012C40002F03F025B6813F4800F2BD0284B5B685D
:1012D400C3F388131E4600275C010025E41A65EB5E
:1012E4000705A90141EA9461A001001B61EB050116
:1012F400CB0043EA5073C400A01943EB07014B022F
:1013040043EAD0534402204619460023FEF760FF07
:10131400174B5B68C3F3014301335B00B0FBF3F08D
:10132400BDE8F08B124B5B68C3F388131E4600279D
:101334005C010025E41A65EB0705A90141EA946103
:10134400A001001B61EB0501CB0043EA5073C4000C
:10135400A01943EB07018B0243EA90538402204611
:1013640019460023FEF734FFD2E70348704700BF55
:10137400003802400024F40000127A00002800F033
:101384009E8070B50446504B1B6803F00F038B42DC
:1013940009D2CBB24C4A1370136803F00F038B428B
:1013A40001D0012070BD236813F0020F17D013F091
:1013B400040F04D0454A936843F4E05393602368D0
:1013C40013F0080F04D0414A936843F460439360D8
:1013D4003E4A936823F0F003A068034393600D46EC
:1013E400236813F0010F32D06368012B21D09A1EB9
:1013F400012A25D9354A126812F0020F61D0334907
:101404008A6822F0030213438B60FFF7F5FB06465C
:101414002E4B9B6803F00C036268B3EB820F16D06B
:10142400FFF7EAFB801B41F288339842F0D903208E
:10143400B8E7264A126812F4003FE0D10120B1E770
:10144400224A126812F0007FD9D10120AAE71E4B6C
:101454001B6803F00F03AB4209D9EAB21A4B1A70A6
:101464001B6803F00F03AB4201D001209AE7236805
:1014740013F0040F06D0154A936823F4E053E1688F
:101484000B439360236813F0080F07D00F4A936847
:1014940023F46043216943EAC1039360FFF702FF29
:1014A4000A4B9B68C3F30313094AD35CD840094B26
:1014B4001860094B1868FFF755FB002072E70120FC
:1014C400704701206EE700BF003C02400038024034
:1014D400C01C00080000002008000020014B186810
:1014E400704700BF0000002008B5FFF7F7FF044B6A
:1014F4009B68C3F38223034AD35CD84008BD00BF72
:1015040000380240D01C000808B5FFF7E7FF044B81
:101514009B68C3F34233034AD35CD84008BD00BF81
:1015240000380240D01C000810B4036A046A24F096
:1015340001040462846924F0F00444EA021223F0F2
:101544000A030B43826103625DF8044B704710B4D5
:10155400036A23F0100303628469036A24F4704469
:1015640044EA023223F0A00343EA011382610362D6
:101574005DF8044B7047836823F07003194341F00E
:101584000701816070470268D36843F00103D360A8
:101594000268936803F00703062B03D0136843F033
:1015A400010313600020704770477047704770470D
:1015B400704710B5044603681A6912F0020F11D07F
:1015C400DA6812F0020F0DD06FF002021A610123E3
:1015D400037703689B6913F0030F70D0FFF7E6FFEE
:1015E4000023237723681A6912F0040F12D0DA68F3
:1015F40012F0040F0ED06FF004021A610223237755
:1016040023689B6913F4407F5FD02046FFF7CEFF29
:101614000023237723681A6912F0080F12D0DA68BE
:1016240012F0080F0ED06FF008021A61042323771A
:101634002368DB6913F0030F4ED02046FFF7B6FF93
:101644000023237723681A6912F0100F12D0DA6886
:1016540012F0100F0ED06FF010021A6108232377D6
:101664002368DB6913F4407F3DD02046FFF79EFFDB
:101674000023237723681A6912F0010F03D0DA6874
:1016840012F0010F36D123681A6912F0800F03D0CB
:10169400DA6812F0800F34D123681A6912F0400F0F
:1016A40003D0DA6812F0400F32D123681A6912F0BD
:1016B400200F03D0DA6812F0200F30D110BDFFF7ED
:1016C40074FF2046FFF773FF8AE72046FFF76DFF9C
:1016D4002046FFF76CFF9BE72046FFF766FF204696
:1016E400FFF765FFACE72046FFF75FFF2046FFF7F3
:1016F4005EFFBDE76FF001021A612046FFF754FF59
:10170400C1E76FF080021A61204600F02CF9C3E7AC
:101714006FF040021A612046FFF74AFFC5E76FF0F9
:1017240020021A61204600F01DF9C7E70368254A24
:1017340090420ED0B0F1804F0BD0A2F57C42904283
:1017440007D002F58062904203D002F58062904295
:1017540003D123F070034A6813431A4A90421AD003
:10176400B0F1804F17D0A2F57C42904213D002F51D
:10177400806290420FD002F5806290420BD002F555
:101784009A32904207D002F58062904203D002F56B
:101794008062904203D123F44073CA68134323F058
:1017A40080034A69134303608B68C3620B688362D6
:1017B400044B984202D00123436170470B690363D1
:1017C400F9E700BF00000140A8B110B5044690F845
:1017D4003D305BB1022384F83D30211D2068FFF7C2
:1017E400A5FF012384F83D30002010BD80F83C3073
:1017F400FFF73EF9EEE70120704710B4846824F443
:101804007F4442EA03230B43234383605DF8044B84
:10181400704790F83C30012B66D010B50446012384
:1018240080F83C30022380F83D300268936823F44A
:101834007F4323F0770393600B68402B4AD013D97E
:10184400602B3DD01ED9702B28D0B3F5005F30D16A
:10185400CB684A6889680068FFF7CFFF22689368FD
:1018640043F48043936024E0102B06D004D9202B4A
:1018740003D0302B01D01CE0DBB919462068FFF7F8
:101884007AFE16E0502B14D1CA6849680068FFF745
:101894004BFE50212068FFF76EFE0AE0CB684A68D1
:1018A40089680068FFF7A9FF2268936843F077030B
:1018B4009360012384F83D30002084F83C0010BD7F
:1018C400CA6849680068FFF742FE60212068FFF794
:1018D40052FEEEE7CA6849680068FFF725FE40211A
:1018E4002068FFF748FEE4E70220704790F83C3098
:1018F400012B33D030B4012380F83C30022380F82C
:101904003D3003685C689D6824F070040A682243D3
:101914005A600368124A934212D0B3F1804F0FD039
:10192400A2F57C4293420BD002F58062934207D029
:1019340002F58062934203D002F59A32934204D1B5
:1019440025F080054A6815439D60012380F83D30E9
:10195400002380F83C30184630BC704702207047A2
:1019640000000140704770472DE9F04B04460268BF
:10197400136923F44053C1680B43136183680269FC
:10198400134342691343C2691A430168CB6823F4C1
:10199400164323F00C031343CB600268536923F40A
:1019A400407381690B435361C369B3F5004F3BD066
:1019B4000368714A934200F0AB8002F5806293425F
:1019C40000F0A680FFF790FD4FF00009061849EBE0
:1019D400090716EB000B47EB090C4FEACC0343EA6B
:1019E4005B734FEACB0293469C4663689A009B0F55
:1019F40010EB0B0049EB0C01FEF7EAFB5F4DA5FB76
:101A040000325109642202FB110213013233A5FB97
:101A140003235B0903F0F00202EB011203F00F034E
:101A2400216813448B60A4E00368534A934239D07D
:101A340002F58062934235D0FFF756FD83464FF09E
:101A4400000C06184CEB0C0716EB000847EB0C09CE
:101A54004FEAC90343EA58734FEAC80290469946CD
:101A640062680021921841EB01031BEB08004CEB68
:101A74000901FEF7ADFB414DA5FB0032510964227B
:101A840002FB1102D3003233A5FB03235B095A0086
:101A940002F4F87202EB011203F007032168134405
:101AA4008B6066E0FFF730FD80464FF000090618B2
:101AB40049EB090716EB000B47EB090C4FEACC0383
:101AC40043EA5B734FEACB0293469C46626800216B
:101AD400921841EB010318EB0B0049EB0C01FEF7E4
:101AE40077FB264DA5FB00325109642202FB11024B
:101AF400D3003233A5FB03235B095A0002F4F872C6
:101B040002EB011203F00703216813448B6030E0F9
:101B1400FFF7FAFC4FF00009061849EB090716EB2A
:101B2400000B47EB090C4FEACC0343EA5B734FEA23
:101B3400CB0293469C4663689A009B0F10EB0B0004
:101B440049EB0C01FEF744FB0C4DA5FB0032510997
:101B5400642202FB110213013233A5FB03235B0948
:101B640003F0F00202EB011203F00F0321681344A7
:101B74008B60BDE8F08B00BF001001401F85EB5166
:101B840058B310B5044690F839300BB3242384F8C5
:101B940039302268D36823F40053D3602046FFF71A
:101BA400E3FE2268136923F49043136122685369A6
:101BB40023F02A0353612268D36843F40053D360AB
:101BC4000020E063202384F8393084F83A3010BDD3
:101BD40080F83830FEF76CFFD8E70120704700002A
:101BE400DFF834D0002103E00C4B5B584350043140
:101BF4000B480C4B42189A42F6D30B4A02E00023DE
:101C040042F8043B094B9A42F9D3FEF79DFF00F0DA
:101C140011F8FEF7DFFE704700800120E81C000881
:101C2400000000200C0000200C000020A401002073
:101C3400FEE7000070B50D4E0D4CA41BA41000254A
:101C4400A54209D10B4E0C4C00F020F8A41BA410A3
:101C54000025A54205D170BD56F8253098470135B9
:101C6400EEE756F8253098470135F2E7E01C000806
:101C7400E01C0008E01C0008E41C000802440346C1
:101C8400934200D1704703F8011BF9E7F8B500BF90
:101C9400F8BC08BC9E467047F8B500BFF8BC08BC49
:041CA4009E467047A1
:101CA8000D0E131516191A1C232526292A2C323431
:101CB8002A2A2A2A2A2A382C0000000000000000BC
:101CC80001020304060708090000000001020304DA
:081CD8002CE5FF7F0100000074
:041CE000B90100083E
:041CE400950100085E
:0C1CE8000024F4000100000010000000C7
:0400000508001BE5EF
:00000001FF
